:020000040800F2
:1000000000500020D92E0008212F0008212F0008C1
:10001000212F0008212F0008212F000800000000D8
:10002000000000000000000000000000212F000878
:10003000212F000800000000212F0008F12F0008E8
:10004000212F0008212F0008212F0008212F000850
:10005000212F0008212F0008212F0008212F000840
:10006000212F0008212F0008212F0008212F000830
:10007000212F0008212F0008212F0008212F000820
:10008000212F0008212F0008212F00086D3A0008B9
:10009000613A0008212F0008212F0008212F0008B5
:1000A000212F0008212F0008212F0008212F0008F0
:1000B000212F0008212F0008212F0008212F0008E0
:1000C000212F0008212F0008212F0008212F0008D0
:1000D000212F0008212F0008212F0008212F0008C0
:1000E000212F0008212F0008212F00080000000008
:1000F0000000000000000000000000000000000000
:0C01000000000000000000005FF808F1A3
:10010C0080B582B000AF0346FB80FB88002B0AD180
:10011C0040F22413C2F200031B684FF001021A8252
:10012C004FF000030DE040F22013C2F200031B68F5
:10013C001B68984740F22413C2F200031B6803F1BA
:10014C000A03184607F10807BD4680BD80B500AF0D
:10015C0040F22413C2F200031B68DA7840F2480321
:10016C00C2F200035B789A4225D840F22413C2F203
:10017C0000031B689B78002B1DD140F22413C2F2A4
:10018C0000031B689B88002B15D140F22413C2F28C
:10019C0000031A6840F22413C2F200031B68DB78D8
:1001AC00937240F22013C2F200031B685B689847FD
:1001BC004FF0000301E04FF00203184680BD00BF72
:1001CC0080B582B000AF0346FB80FB88002B0AD1C0
:1001DC0040F22413C2F200031B684FF001021A8292
:1001EC004FF000030DE040F22013C2F200031B6835
:1001FC009B68984740F22413C2F200031B6803F17A
:10020C000C03184607F10807BD4680BD80B582B0C7
:10021C0000AF40F2FC03C2F200031B689A6940F283
:10022C002413C2F200031B68597940F22413C2F262
:10023C0000031B68DB780846194690470346FB71A0
:10024C0040F22413C2F200031B689B7A002B3AD0B5
:10025C00FB79002B0FD140F22413C2F200031B6870
:10026C001B79002B07D140F22413C2F200031B6848
:10027C009B78002B02D04FF0020326E0FB79002B79
:10028C0021D140F22013C2F200031B68DB689847AF
:10029C0040F22413C2F200031A6840F22413C2F293
:1002AC0000031B685B79D37240F22413C2F2000383
:1002BC001A6840F22413C2F200031B68DB78137334
:1002CC004FF0000301E04FF00203184607F1080756
:1002DC00BD4680BD80B584B000AF0346FB80FB8873
:1002EC00002B0AD140F22413C2F200031B684FF01A
:1002FC0002021A824FF00003C5E040F2F403C2F28E
:10030C0000034FF000021A8040F22413C2F20003E3
:10031C001B681B7803F07F03002B47D140F224139A
:10032C00C2F200031B685B7AFB73FB7B03F02003B8
:10033C00002B0DD040F2F403C2F200031B7843F003
:10034C000203DAB240F2F403C2F200031A700CE0BA
:10035C0040F2F403C2F200031B7823F00203DAB27A
:10036C0040F2F403C2F200031A70FB7B03F040036B
:10037C00002B0DD040F2F403C2F200031B7843F0C3
:10038C000103DAB240F2F403C2F200031A706FE018
:10039C0040F2F403C2F200031B7823F00103DAB23B
:1003AC0040F2F403C2F200031A7061E040F224132D
:1003BC00C2F200031B681B7803F07F03012B04D1EE
:1003CC0040F2F403C2F200035DE040F22413C2F2E7
:1003DC0000031B681B7803F07F03022B45D140F20E
:1003EC002413C2F200031B685B79BB73BB7B03F065
:1003FC000F037B73BB7B5BB2002B1ADA7B7B4FEA60
:10040C00830303F1804303F5B8431B689BB203F0ED
:10041C003003102B2CD140F2F403C2F200031B78F2
:10042C0043F00103DAB240F2F403C2F200031A7093
:10043C001EE07B7B4FEA830303F1804303F5B84353
:10044C001B689BB203F44053B3F5805F10D140F2AC
:10045C00F403C2F200031B7843F00103DAB240F25A
:10046C00F403C2F200031A7002E04FF000030AE03A
:10047C0040F22013C2F200031B681B69984740F23C
:10048C00F403C2F20003184607F11007BD4680BD05
:10049C0090B587B000AF40F22413C2F200031B6882
:1004AC001B7803F07F033B613B69002B11D140F2B9
:1004BC002413C2F200031A6840F22413C2F20003A0
:1004CC001B685B7A23F02003DBB253724FF00003FE
:1004DC00F1E03B69022B40F0EC8040F22413C2F2B5
:1004EC0000031B685B88002B07D140F22413C2F277
:1004FC0000031B681B79002B02D04FF00203DAE0DB
:10050C0040F24803C2F20003FB6040F22413C2F233
:10051C0000031B685B79BB60BB6823F080037B60C6
:10052C007B683B6040F22413C2F200031B685B79CA
:10053C00DBB25BB2002B0CDA3B684FEA830303F1AE
:10054C00804303F5B8431B689BB203F030037B6117
:10055C000BE03B684FEA830303F1804303F5B84398
:10056C001B689BB203F440537B61FB681B781A46F3
:10057C007B689A420AD97B69002B07D040F224137E
:10058C00C2F200031B689B7A002B02D14FF00203CE
:10059C0091E0BB6803F08003002B19D03B684FEA55
:1005AC00830303F1804303F5B8431B689BB203F04C
:1005BC003003102B73D13B68DBB2184601F06AFC98
:1005CC003B68DBB218464FF0300101F03BFB66E0B4
:1005DC003B684FEA830303F1804303F5B8431B6880
:1005EC009BB203F44053B3F5805F58D13B68002BAA
:1005FC002ED13B68DAB240F24C03C2F2000393F8FE
:10060C002C301046194601F01DFD3B684FEA830360
:10061C0003F1804303F5B8431B689BB223F480437A
:10062C0023F070039CB284F480539CB284F4005386
:10063C009CB23B684FEA830303F1804202F5B84257
:10064C0048F28003CFF6FF7323439BB2136026E07E
:10065C003B68DBB2184601F0EDFB3B684FEA8303C5
:10066C0003F1804303F5B8431B689BB223F480432A
:10067C0023F070039CB284F480539CB284F4005336
:10068C009CB23B684FEA830303F1804202F5B84207
:10069C0048F28003CFF6FF7323439BB2136040F202
:1006AC002013C2F200031B685B6998474FF00003EC
:1006BC0001E04FF00203184607F11C07BD4690BD40
:1006CC0090B585B000AF40F22413C2F200031B6852
:1006DC005B79BB60BB6823F080037B607B683B600D
:1006EC0040F22413C2F200031B685B79DBB25BB2ED
:1006FC00002B0CDA3B684FEA830303F1804303F5CC
:10070C00B8431B689BB203F03003FB600BE03B6803
:10071C004FEA830303F1804303F5B8431B689BB294
:10072C0003F44053FB6040F24803C2F200031B7811
:10073C001A463B689A4212D940F22413C2F20003C3
:10074C001B685B88002B0AD1FB68002B07D040F29A
:10075C002413C2F200031B689B7A002B02D14FF0CA
:10076C0002034CE0BB6803F08003002B1FD03B68F6
:10077C004FEA830303F1804303F5B8431B689BB234
:10078C0023F4E04323F040039CB284F010039CB2AA
:10079C003B684FEA830303F1804202F5B84248F20A
:1007AC008003CFF6FF7323439BB213601EE03B68BC
:1007BC004FEA830303F1804303F5B8431B689BB2F4
:1007CC0023F4804323F070039CB284F480539CB2D6
:1007DC003B684FEA830303F1804202F5B84248F2CA
:1007EC008003CFF6FF7323439BB2136040F22013B8
:1007FC00C2F200031B689B6998474FF00003184630
:10080C0007F11407BD4690BD80B500AF40F224132C
:10081C00C2F200031A6840F22413C2F200031B68F0
:10082C005B7A43F02003DBB2537240F22013C2F226
:10083C0000031B68DB6998474FF00003184680BD26
:10084C0080B485B000AF03463960FB8040F22413BE
:10085C00C2F200031B685B8AFB60FB88002B0ED185
:10086C0040F22413C2F200031B683A689188FA68BC
:10087C0092B28A1A92B21A824FF0000303E03B68DC
:10088C001A68FB68D318184607F11407BD4680BCDC
:10089C00704700BF80B584B000AF40F22413C2F2A1
:1008AC0000031B6803F11003BB60BB681B887B60F3
:1008BC00BB689B68002B30D07B68002B2DD0BB68AD
:1008CC009B88FB60FA687B689A4201D97B68FB6065
:1008DC00BB689B68FA6892B21046984703463B6027
:1008EC00BB681A88FB689BB2D31A9AB2BB681A8091
:1008FC00BB685A88FB689BB2D3189AB2BB685A8003
:10090C004FF0000001F05EFB03461A46FB689BB2F9
:10091C00386811461A4601F025F9BB681B88002B74
:10092C0013D040F22A13C2F200034FF440521A8043
:10093C004FF000004FF0000101F064FB40F22C136B
:10094C00C2F200034FF030021A80BB681A88BB68F1
:10095C009B889A4208D340F22413C2F200031B680E
:10096C004FF003021A7230E0BB681B88002B08D0D2
:10097C0040F22413C2F200031B684FF005021A72F6
:10098C0023E0BB681B88002B1FD140F22413C2F25A
:10099C0000031B684FF006021A7245F65043C4F26E
:1009AC0000031B689BB21A4643F20203C2F2000317
:1009BC00D3184FEA43034FF000021A6040F22C1395
:1009CC00C2F200034FF030021A8007F11007BD4647
:1009DC0080BD00BF80B586B000AF40F22413C2F2D8
:1009EC0000031B6803F11003FB60FB681B88BB60F2
:1009FC0040F22413C2F200031B681B7A7B61BB68B4
:100A0C00002B37D17B69042B34D140F2E803C2F2BE
:100A1C0000031B78012B22D145F65043C4F200038E
:100A2C001B689BB21A4643F20203C2F20003D318AE
:100A3C004FEA43034FF000021A6040F22C13C2F24B
:100A4C0000034FF030021A804FF004037B6140F238
:100A5C00E803C2F200034FF000021A7057E04FF0A7
:100A6C0007037B6140F22C13C2F200034FF010021B
:100A7C001A804CE0FB689B883B61BA683B699A42E0
:100A8C0002D84FF0040301E04FF002037B613A6996
:100A9C00BB689A4201D9BB683B61FB689B683A69A9
:100AAC0092B21046984703467B604FF0000001F06D
:100ABC006BFA03461A463B699BB2786811461A4694
:100ACC0001F00CF83B699BB24FF00000194601F0A5
:100ADC0099FAFB681A883B699BB2D31A9AB2FB68E5
:100AEC001A80FB685A883B699BB2D3189AB2FB6890
:100AFC005A8040F22C13C2F200034FF030021A80DD
:100B0C0040F22A13C2F200034FF440521A8040F212
:100B1C002413C2F200031B687A69D2B21A7207F16D
:100B2C001807BD4680BD00BF80B584B000AF4FF044
:100B3C000203FB7340F22413C2F200031B685B78C0
:100B4C007B6040F22413C2F200031B681B7803F095
:100B5C007F03002B76D17B68092B04D1FFF7F6FAC3
:100B6C000346FB739EE07B68052B29D140F22413CE
:100B7C00C2F200031B68DB78DBB25BB2002B17DB25
:100B8C0040F22413C2F200031B689B78002B0FD198
:100B9C0040F22413C2F200031B689B88002B07D180
:100BAC0040F22413C2F200031B689B7A002B03D083
:100BBC004FF00803BB60AEE04FF00003FB7371E035
:100BCC007B68032B18D140F22413C2F200031B687C
:100BDC00DB78012B0CD140F22413C2F200031B680A
:100BEC009B88002B04D1FFF70FFE0346FB7359E0E3
:100BFC004FF00203FB7356E07B68012B52D140F29D
:100C0C002413C2F200031B68DB78012B16D140F2CF
:100C1C002413C2F200031B689B88002B0ED140F2F8
:100C2C002413C2F200031B685B7A03F02003002B31
:100C3C0004D0FFF72DFC0346FB7334E04FF00203A6
:100C4C00FB732FE040F22413C2F200031B681B78E5
:100C5C0003F07F03012B07D17B680B2B23D1FFF70C
:100C6C00D5FA0346FB731EE040F22413C2F20003D4
:100C7C001B681B7803F07F03022B0FD17B68012BC1
:100C8C0004D1FFF705FC0346FB730CE07B68032BD8
:100C9C0009D1FFF715FD0346FB7304E04FF0020387
:100CAC00FB7300E000BFFB7B002B12D040F2FC0377
:100CBC00C2F200031B685B697A68D2B2104698478F
:100CCC000346FB73FB7B032B03D14FF00903BB6083
:100CDC0021E0FB7B002B03D04FF00803BB601AE034
:100CEC004FF00603BB6045F65043C4F200031B688B
:100CFC009BB21A4643F20203C2F20003D3184FEA26
:100D0C0043034FF000021A6040F22C13C2F20003AE
:100D1C004FF030021A8040F22413C2F200031B6819
:100D2C00BA68D2B21A7207F11007BD4680BD00BF77
:100D3C0080B58AB000AF40F22413C2F200031B68E6
:100D4C005B78BB614FF000037B624FF000037B616B
:100D5C00BB69062B33D140F22413C2F200031B688B
:100D6C001B7803F07F03002B40F03C8140F22413EE
:100D7C00C2F200031B689B78FB74FB7C012B07D130
:100D8C0040F2FC03C2F200031B68DB697B6229E1C1
:100D9C00FB7C022B07D140F2FC03C2F200031B6860
:100DAC001B6A7B621EE1FB7C032B40F01B8140F233
:100DBC00FC03C2F200031B685B6A7B6212E1BB6935
:100DCC00002B40F0B58040F22413C2F200031B68E4
:100DDC005B88002B40F0AC8040F22413C2F200037D
:100DEC001B68DB88022B40F0A38040F22413C2F274
:100DFC0000031B681B79002B40F09A8040F22413EF
:100E0C00C2F200031B681B7803F07F03002B0DD18B
:100E1C0040F22413C2F200031B689B88002B05D1FF
:100E2C0040F2E123C0F600037B62DAE040F22413C7
:100E3C00C2F200031B681B7803F07F03012B22D145
:100E4C0040F2FC03C2F200031B689A6940F22413BF
:100E5C00C2F200031B685B7918464FF00001904703
:100E6C000346002B40F0BD8040F22413C2F2000375
:100E7C001B689B7A002B00F0B48040F2E123C0F693
:100E8C0000037B62ADE040F22413C2F200031B6846
:100E9C001B7803F07F03022B40F0A38040F2241355
:100EAC00C2F200031B685B7903F00F03FB6040F296
:100EBC002413C2F200031B685B7903F07003BB6060
:100ECC0040F22413C2F200031B685B79DBB25BB205
:100EDC00002B0CDAFB684FEA830303F1804303F524
:100EEC00B8431B689BB203F03003FB610BE0FB685B
:100EFC004FEA830303F1804303F5B8431B689BB2AD
:100F0C0003F44053FB6140F24803C2F200031B7828
:100F1C001A46FB689A4264D9BB68002B61D1FB6905
:100F2C00002B5ED040F2E123C0F600037B6258E058
:100F3C00BB69082B0FD140F22413C2F200031B68CB
:100F4C001B7803F07F03002B4CD140F20D13C0F63D
:100F5C0000037B6246E0BB690A2B43D140F22413A9
:100F6C00C2F200031B681B7803F07F03012B39D1FD
:100F7C0040F22413C2F200031B689B7A002B31D081
:100F8C0040F22413C2F200031B685B88002B29D1AA
:100F9C0040F22413C2F200031B681B79002B21D1F1
:100FAC0040F22413C2F200031B68DB88012B19D119
:100FBC0040F2FC03C2F200031B689A6940F224134E
:100FCC00C2F200031B685B7918464FF00001904792
:100FDC000346002B06D140F2CD13C0F600037B6212
:100FEC0000E000BF7B6A002B17D040F22413C2F242
:100FFC0000031B687A6992B25A8240F22413C2F23F
:10100C0000031B687A6A9A617B6A4FF0000098476C
:10101C004FF0000387F823301DE040F2FC03C2F2CE
:10102C0000031B681A6940F22413C2F200031B6808
:10103C005B7818469047034687F8233097F823309F
:10104C00032B08D140F22413C2F200031B684FF0AB
:10105C0009021A72ACE040F22413C2F200031B68BE
:10106C001A8A4FF6FF739A4208D140F22413C2F247
:10107C0000031B684FF009021A7299E097F82330AD
:10108C00022B07D040F22413C2F200031B681B8A08
:10109C00002B08D140F22413C2F200031B684FF05E
:1010AC0008021A7284E040F22413C2F200031B6897
:1010BC001B78DBB25BB2002B6ADA40F22413C2F26B
:1010CC0000031B68DB887B6040F22413C2F2000330
:1010DC001B681B8A1A467B689A4208D940F2241373
:1010EC00C2F200031B687A6892B21A8240E040F2A6
:1010FC002413C2F200031B681A8A40F22413C2F2B2
:10110C0000031B68DB889A4232D240F22413C2F2ED
:10111C0000031B681A8A40F2FC03C2F200031B682E
:10112C0093F82C309A4207D240F2E803C2F2000343
:10113C004FF000021A701BE040F22413C2F20003BD
:10114C001B681B8A1A4640F2FC03C2F200031B68A0
:10115C0093F82C3092FBF3F103FB01F3D31A002B21
:10116C0006D140F2E803C2F200034FF001021A70FC
:10117C0040F22413C2F200031A6840F2FC03C2F2DC
:10118C0000031B6893F82C309382FFF723FC0EE0CE
:10119C0040F22413C2F200031B684FF003021A72D0
:1011AC0040F22A13C2F200034FF440521A8000BFDF
:1011BC0007F12807BD4680BD90B583B000AF4FF056
:1011CC000103FB8045F65043C4F200031B689BB23D
:1011DC001A4643F20403C2F20003D3184FEA430346
:1011EC001B689BB203F1005303F540534FEA4303D2
:1011FC003B6040F22413C2F200031B681B7A092BDC
:10120C004DD040F22413C2F200031A683B681978DF
:10121C00117003F101033B6040F22413C2F200038E
:10122C001A683B681978517003F101033B603A6806
:10123C00FB884FEA4303D3183B6040F22413C2F2FD
:10124C0000031C683B681A8803F102033B601046DC
:10125C0000F044FF034663803A68FB884FEA43037F
:10126C00D3183B6040F22413C2F200031C683B68A5
:10127C001A8803F102033B60104600F02FFF03466F
:10128C00A3803A68FB884FEA4303D3183B6040F2D3
:10129C002413C2F200031B683A681288DA8040F209
:1012AC002413C2F200031B684FF001021A7240F2C1
:1012BC002413C2F200031B68DB88002B02D1FFF75A
:1012CC0033FC01E0FFF734FD00F0AAF803461846A2
:1012DC0007F10C07BD4690BD80B582B000AF40F25F
:1012EC002413C2F200031B681B7A7B607B68022B01
:1012FC0002D07B68042B09D1FFF76CFB40F224135E
:10130C00C2F200031B681B7A7B6032E07B68062B01
:10131C002CD140F22413C2F200031B685B78052B1E
:10132C0019D140F22413C2F200031B681B7803F09E
:10133C007F03002B0FD140F22413C2F200031B6871
:10134C00DB78184600F09CF840F22013C2F2000340
:10135C001B681B6A984740F2FC03C2F200031B682F
:10136C009B6898474FF008037B6002E04FF008033E
:10137C007B6040F22413C2F200031B687A68D2B27D
:10138C001A7200F04DF80346184607F10807BD46DF
:10139C0080BD00BF80B582B000AF40F22413C2F212
:1013AC0000031B681B7A7B607B68022B02D07B6876
:1013BC00042B03D14FF008037B6020E07B68032BE8
:1013CC0002D07B68052B09D1FFF764FA40F2241395
:1013DC00C2F200031B681B7A7B6010E07B68072B52
:1013EC000AD140F2FC03C2F200031B68DB68984789
:1013FC004FF008037B6002E04FF008037B6040F283
:10140C002413C2F200031B687A68D2B21A7200F07D
:10141C0007F80346184607F10807BD4680BD00BF14
:10142C0080B500AF40F24C03C2F2000393F82C30AD
:10143C004FF00000194600F005FE40F22413C2F2F2
:10144C0000031B681B7A082B0DD140F22A13C2F241
:10145C0000034FF480521A8040F22C13C2F20003A6
:10146C004FF010021A8040F22413C2F200031B68E2
:10147C001B7A092B14BF00230123DBB2184680BD55
:10148C0080B485B000AF0346FB7140F24803C2F252
:10149C0000031B78BB604FF00003FB6021E0FB688E
:1014AC00DBB24FEA830303F1804303F5B843FA68D8
:1014BC00D2B24FEA820202F1804202F5B8421268BF
:1014CC0092B2114640F60F720A4042F4004242F0CA
:1014DC008002F968C9B20A431A60FB6803F1010380
:1014EC00FB60FA68BB689A42D9D345F64C43C4F208
:1014FC000003FA7962F07F02D2B21A6007F1140786
:10150C00BD4680BC704700BF80B400AFBD4680BCF8
:10151C00704700BF80B500AF40F22413C2F2000345
:10152C0040F20412C2F200021A6040F22413C2F21A
:10153C0000031B684FF002021A7240F2FC03C2F265
:10154C00000340F24C02C2F200021A6040F2201377
:10155C00C2F2000340F27C02C2F200021A6040F2B6
:10156C00FC03C2F200031B681B68984780BD00BFD8
:10157C0090B583B000AF4FF00003FB80F5E140F273
:10158C002E13C2F200031B889BB2DBB203F00F03D5
:10159C00DAB240F20013C2F200031A7040F20013E8
:1015AC00C2F200031B78002B40F06F814FF4B8435C
:1015BC00C4F200031B689AB240F22A13C2F2000371
:1015CC001A8040F22A13C2F200031B889BB203F06C
:1015DC0030039AB240F22C13C2F200031A8040F28C
:1015EC002A13C2F200031B889BB203F440539AB235
:1015FC0040F22A13C2F200031A804FF4B843C4F22B
:10160C0000031B689BB24BF6BF741C4084F400545F
:10161C0084F020044FF4B842C4F20002A1B248F2A4
:10162C008003CFF6FF730B439BB2136040F22E1373
:10163C00C2F200031B889BB203F01003002B5AD19B
:10164C004FF4B843C4F200034FF4B842C4F20002A2
:10165C00126892B2114648F60F720A401A60FFF7F0
:10166C003BFE4FF4B843C4F200031B689BB24BF62D
:10167C00BF741C4040F22A13C2F200031B889BB2B9
:10168C0003F480539BB2002B01D084F4805440F2BD
:10169C002A13C2F200031B889BB203F400539BB2C3
:1016AC00002B01D084F4005440F22C13C2F200033E
:1016BC001B889BB203F010039BB2002B01D084F06B
:1016CC00100440F22C13C2F200031B889BB203F0EF
:1016DC0020039BB2002B01D084F020044FF4B842BD
:1016EC00C4F20002A1B248F28003CFF6FF730B43A1
:1016FC009BB213604BE14FF4B843C4F200031B6878
:10170C009BB2FB80FB889BB203F40063002B5AD086
:10171C004FF4B843C4F200034FF4B842C4F20002D1
:10172C00126892B2114640F68F720A401A60FFF7A7
:10173C0043FD4FF4B843C4F200031B689BB24BF655
:10174C00BF741C4040F22A13C2F200031B889BB2E8
:10175C0003F480539BB2002B01D084F4805440F2EC
:10176C002A13C2F200031B889BB203F400539BB2F2
:10177C00002B01D084F4005440F22C13C2F200036D
:10178C001B889BB203F010039BB2002B01D084F09A
:10179C00100440F22C13C2F200031B889BB203F01E
:1017AC0020039BB2002B01D084F020044FF4B842EC
:1017BC00C4F20002A1B248F28003CFF6FF730B43D0
:1017CC009BB21360E3E0FB889BB29BB21BB2002B75
:1017DC0080F2CB804FF4B843C4F200034FF4B8420C
:1017EC00C4F20002126892B2114640F68F720A409F
:1017FC001A60FFF7CFFD4FF4B843C4F200031B6827
:10180C009BB24BF6BF741C4040F22A13C2F2000389
:10181C001B889BB203F480539BB2002B01D084F441
:10182C00805440F22A13C2F200031B889BB203F4CB
:10183C0000539BB2002B01D084F4005440F22C13C3
:10184C00C2F200031B889BB203F010039BB2002B67
:10185C0001D084F0100440F22C13C2F200031B8858
:10186C009BB203F020039BB2002B01D084F0200428
:10187C004FF4B842C4F20002A1B248F28003CFF692
:10188C00FF730B439BB2136081E040F20013C2F272
:10189C0000031B784FEA830303F1804303F5B8433D
:1018AC001B689BB2FB80FB889BB29BB21BB2002BCC
:1018BC002ADA40F20013C2F200031B784FEA8303CA
:1018CC0003F1804303F5B84340F20012C2F2000268
:1018DC0012784FEA820202F1804202F5B842126895
:1018EC0092B2114640F68F720A401A6040F2001311
:1018FC00C2F200031B7803F1FF3240F22C03C2F258
:10190C00000353F822309847FB889BB203F0800306
:10191C00002B2AD040F20013C2F200031B784FEACE
:10192C00830303F1804303F5B84340F20012C2F283
:10193C00000212784FEA820202F1804202F5B842AC
:10194C00126892B2114648F60F720A401A6040F2C1
:10195C000013C2F200031B7803F1FF3240F21003B4
:10196C00C2F2000353F82230984745F64443C4F2C0
:10197C0000031B689BB21A4640F22E13C2F20003FE
:10198C001146198093B21BB2002BFFF6F8AD07F18C
:10199C000C07BD4690BD00BF80B582B000AF4FF0C4
:1019AC0000037B6084E045F64443C4F2000347F631
:1019BC00FF721A6040F22E13C2F200031B889BB216
:1019CC00DBB203F00F03DAB240F20013C2F20003F1
:1019DC001A7040F20013C2F200031B784FEA830323
:1019EC0003F1804303F5B8431B689BB27B607B68B3
:1019FC0003F40043002B2BD040F20013C2F200037F
:101A0C001B784FEA830303F1804303F5B84340F29C
:101A1C000012C2F2000212784FEA820202F18042F6
:101A2C0002F5B842126892B2114640F68F720A4023
:101A3C001A6040F20013C2F200031B7803F1FF326C
:101A4C0040F22C03C2F2000353F8223098472FE0E7
:101A5C007B6803F08003002B2AD040F20013C2F203
:101A6C0000031B784FEA830303F1804303F5B8436B
:101A7C0040F20012C2F2000212784FEA820202F126
:101A8C00804202F5B842126892B2114648F60F72C3
:101A9C000A401A6040F20013C2F200031B7803F1F3
:101AAC00FF3240F21003C2F2000353F82230984781
:101ABC0045F64443C4F200031B689BB21A4640F23D
:101ACC002E13C2F200031146198093B21BB2002BE5
:101ADC00FFF669AF07F10807BD4680BD80B489B039
:101AEC0000AF786013460A467A803B803B8803F14E
:101AFC0001034FEA63037B617B8803F1005303F519
:101B0C0040534FEA4303BB617B69FB6122E07B6876
:101B1C001B783B617B6803F101037B607B681B785E
:101B2C004FEA03231A463B691343FB60FB689AB2E6
:101B3C00BB691A80BB6903F10203BB61BB6903F18A
:101B4C000203BB617B6803F101037B60FB6903F15A
:101B5C00FF33FB61FB69002BD9D107F12407BD468C
:101B6C0080BC704780B487B000AF786013460A46DB
:101B7C007A803B803B8803F101034FEA6303FB60EF
:101B8C007B8803F1005303F540534FEA43033B6159
:101B9C00FB687B6114E03B691B689AB27B681A8016
:101BAC007B6803F101037B603B6903F104033B6138
:101BBC007B6803F101037B607B6903F1FF337B617D
:101BCC007B69002BE7D107F11C07BD4680BC704731
:101BDC0080B483B000AF0346FB8045F65043C4F29B
:101BEC000003F9884FF6F8720A401A6007F10C07E7
:101BFC00BD4680BC704700BF80B483B000AF0246C6
:101C0C000B46FA71BB80FB794FEA830303F18043E7
:101C1C0003F5B843FA794FEA820202F1804202F5E9
:101C2C00B842126892B222F4EC4222F0700291B2E5
:101C3C00BA880A4392B292B21A6007F10C07BD46F9
:101C4C0080BC704790B482B000AF02460B46FA716C
:101C5C00BB80FB794FEA830303F1804303F5B84360
:101C6C001B689BB223F4E04323F040039CB2BB8877
:101C7C0003F010039BB2002B02D084F010039CB233
:101C8C00BB8803F020039BB2002B02D084F020030E
:101C9C009CB2FB794FEA830303F1804202F5B84210
:101CAC0048F28003CFF6FF7323439BB2136007F116
:101CBC000807BD4690BC704790B482B000AF024696
:101CCC000B46FA71BB80FB794FEA830303F1804327
:101CDC0003F5B8431B689BB223F4804323F07003D5
:101CEC009CB2BB8803F480539BB2002B02D084F4CB
:101CFC0080539CB2BB8803F400539BB2002B02D0E0
:101D0C0084F400539CB2FB794FEA830303F18042C5
:101D1C0002F5B84248F28003CFF6FF7323439BB21F
:101D2C00136007F10807BD4690BC704790B482B0B1
:101D3C0000AF0346FB71FB794FEA830303F1804349
:101D4C0003F5B8431B689BB223F4E04323F0400334
:101D5C009CB284F010039CB284F020039CB2FB79FB
:101D6C004FEA830303F1804202F5B84248F2800344
:101D7C00CFF6FF7323439BB2136007F10807BD46F0
:101D8C0090BC704790B482B000AF0346FB71FB79F6
:101D9C004FEA830303F1804303F5B8431B689BB2FE
:101DAC0023F4804323F070039CB284F480539CB2E0
:101DBC0084F400539CB2FB794FEA830303F1804215
:101DCC0002F5B84248F28003CFF6FF7323439BB26F
:101DDC00136007F10807BD4690BC704780B483B010
:101DEC0000AF0346FB71FB794FEA830303F180429A
:101DFC0002F5B842FB794FEA830303F1804303F504
:101E0C00B8431B689BB223F4F8734FEA03534FEAB1
:101E1C0013539BB243F07F4343F47F0343F40043DB
:101E2C0043F080039BB29BB2136007F10C07BD46D5
:101E3C0080BC704780B483B000AF0346FB71FB7964
:101E4C004FEA830303F1804303F5B8431B689BB24D
:101E5C0003F48043002B18D0FB794FEA830303F182
:101E6C00804303F5B843FA794FEA820202F18042CB
:101E7C0002F5B842126892B2114640F60F720A404F
:101E8C0042F4404242F080021A6007F10C07BD4652
:101E9C0080BC704780B483B000AF0346FB71FB7904
:101EAC004FEA830303F1804303F5B8431B689BB2ED
:101EBC0003F04003002B18D0FB794FEA830303F1A6
:101ECC00804303F5B843FA794FEA820202F180426B
:101EDC0002F5B842126892B2114640F60F720A40EF
:101EEC0042F4004242F0C0021A6007F10C07BD46F2
:101EFC0080BC704780B483B000AF02460B46FA71C9
:101F0C00BB8045F65043C4F200031B689BB21A46D3
:101F1C00FB794FEAC303D31803F1005303F5405385
:101F2C004FEA4303BA884FEA520292B24FEA420296
:101F3C001A6007F10C07BD4680BC704780B483B0B3
:101F4C0000AF02460B46FA71BB8045F65043C4F213
:101F5C0000031B689BB21A46FB794FEAC303D218E5
:101F6C0043F20403C2F20003D3184FEA4303BA88C6
:101F7C004FEA520292B24FEA42021A6007F10C0782
:101F8C00BD4680BC704700BF80B483B000AF034631
:101F9C00FB7145F65043C4F200031B689BB21A4612
:101FAC00FB794FEAC303D31803F1005303F54053F5
:101FBC004FEA43031B689BB2184607F10C07BD465A
:101FCC0080BC704780B483B000AF0346FB7145F60C
:101FDC005043C4F200031B689BB21A46FB794FEACC
:101FEC00C303D21843F20403C2F20003D3184FEA1E
:101FFC0043031B689BB2184607F10C07BD4680BC17
:10200C00704700BF80B483B000AF02460B46FA7134
:10201C00BB8045F65043C4F200031B689BB21A46C2
:10202C00FB794FEAC303D21843F20203C2F2000356
:10203C00D3184FEA4303BA881A6007F10C07BD4660
:10204C0080BC704780B485B000AF02460B46FA7175
:10205C00BB8045F65043C4F200031B689BB21A4682
:10206C00FB794FEAC303D21843F20603C2F2000312
:10207C00D3184FEA4303BB60BB883E2B15D9BB88F2
:10208C004FEA5313FB81BB8803F01F03002B03D1D2
:10209C00FB8903F1FF33FB81FB894FEA832343F474
:1020AC0000431A46BB681A6013E0BB884FEA53031F
:1020BC00FB81BB8803F00103DBB2002B03D0FB894F
:1020CC0003F10103FB81FB894FEA83231A46BB68AA
:1020DC001A6007F11407BD4680BC704780B485B008
:1020EC0000AF0346FB80FB88FB73FB884FEA13238E
:1020FC009BB29AB2FB7B4FEA03239BB213439BB276
:10210C00BB81BB89184607F11407BD4680BC7047DC
:10211C0080B400AF45F64443C4F200034FF0000214
:10212C001A6040F22813C2F200034FF43F421A80A7
:10213C0045F64043C4F2000340F22812C2F20002FA
:10214C0012881A604FF000031846BD4680BC7047D9
:10215C0080B584B000AF0346B9607A60FB73FB7B3B
:10216C0003F07F03DBB21846FFF70EFF03461A4657
:10217C007B689BB2B86811461A46FFF7AFFCFB7B35
:10218C0003F07F03DAB27B689BB210461946FFF767
:10219C0039FF4FF00003184607F11007BD4680BD0C
:1021AC0080B582B000AF4FF001033B714FF00203DA
:1021BC007B7107F104034FF0810019464FF00202C6
:1021CC00FFF7C6FF4FF00100FFF7B0FD07F108075E
:1021DC00BD4680BD80B400AFBD4680BC704700BF1B
:1021EC0080B400AFBD4680BC704700BF80B500AF67
:1021FC0045F64443C4F200031B689AB240F22E1316
:10220C00C2F200031A8040F22E13C2F200031B88A4
:10221C009BB203F4004240F22813C2F200031B8865
:10222C001340002B01D0FFF7A3F940F22E13C2F29A
:10223C0000031B889BB203F4806240F22813C2F2A5
:10224C0000031B881340002B0CD045F64443C4F20A
:10225C0000034FF6FF321A6040F24C03C2F2000347
:10226C005B68984740F22E13C2F200031B889BB2A6
:10227C0003F4005240F22813C2F200031B881340EF
:10228C00002B06D045F64443C4F200034DF6FF7212
:10229C001A6040F22E13C2F200031B889BB203F4A7
:1022AC00805240F22813C2F200031B881340002B0B
:1022BC000AD045F64443C4F200034EF6FF721A608E
:1022CC004FF0000000F00CFC40F22E13C2F20003A1
:1022DC001B889BB203F4006240F22813C2F2000385
:1022EC001B881340002B15D040F2E003C2F2000310
:1022FC001B78DBB2002B02D000F0A8FB03E04FF000
:10230C00020000F0EDFB45F64443C4F200034FF22B
:10231C00FF721A6040F22E13C2F200031B889BB2AC
:10232C0003F4007240F22813C2F200031B8813401E
:10233C00002B14D045F64443C4F200034FF6FF5271
:10234C001A6040F2E903C2F200031B78DBB203F11E
:10235C000103DAB240F2E903C2F200031A7040F250
:10236C002E13C2F200031B889BB203F4807240F25E
:10237C002813C2F200031B881340002B0AD045F629
:10238C004443C4F200034FF6FF621A604FF007009B
:10239C0000F0A6FB80BD00BF80B500AF40F2241357
:1023AC00C2F200031B684FF000029A7200F00EFBA1
:1023BC00FFF7AEFE40F2F003C2F200034FF0000252
:1023CC001A6080BD80B500AF40F22413C2F2000346
:1023DC001B684FF000029A7240F22413C2F2000301
:1023EC001B684FF00002DA724FF00000FFF7F0FBB1
:1023FC004FF000004FF40071FFF7FEFB4FF00000B0
:10240C004FF01001FFF71EFC4FF000004FF01801C9
:10241C00FFF794FD4FF000004FF05801FFF76AFDF5
:10242C004FF00000FFF7DAFC40F24C03C2F200035D
:10243C0093F82C304FF000001946FFF703FE4FF0D5
:10244C000000FFF79FFC4FF001004FF4C061FFF755
:10245C00D3FB4FF001004FF48071FFF74BFD4FF0B1
:10246C0001004FF48271FFF769FD4FF001004FF04E
:10247C000201FFF7C7FD4FF001004FF00201FFF71B
:10248C00E1FD4FF001004FF44051FFF715FC4FF008
:10249C0001004FF02001FFF7D5FB4FF00000FEF7D5
:1024AC00EFFF40F2F003C2F200034FF001021A609A
:1024BC0080BD00BF80B400AF40F22413C2F2000311
:1024CC001B689B7A002B06D040F2F003C2F200038B
:1024DC004FF005021A60BD4680BC704780B400AF57
:1024EC0040F2F003C2F200034FF004021A60BD4642
:1024FC0080BC704780B400AFBD4680BC704700BF45
:10250C0080B400AFBD4680BC704700BF80B584B0BE
:10251C0000AF0346FB714FF00003FB60FB79062B09
:10252C002DD140F22413C2F200031B681B7803F078
:10253C007F03012B23D140F22413C2F200031B684A
:10254C005B79022B1BD140F22413C2F200031B68EF
:10255C009B78222B05D142F62903C0F60003FB60C1
:10256C0050E040F22413C2F200031B689B78212B2D
:10257C0048D142F65103C0F60003FB6042E040F242
:10258C002413C2F200031B681B7803F07F03212B7A
:10259C0039D1FB79032B05D142F6E103C0F60003D8
:1025AC00FB6030E0FB79092B14D140F22413C2F20A
:1025BC0000031B689B78032B0CD142F25563C0F6C9
:1025CC000003FB6040F2EA03C2F200034FF0090281
:1025DC001A7018E0FB79012B15D140F22413C2F2CA
:1025EC0000031B689B78032B0DD142F2AD63C0F640
:1025FC000003FB6040F2EA03C2F200034FF0010259
:10260C001A7000E000BFFB68002B02D14FF00203F0
:10261C0014E040F22413C2F200031B68FA689A61BA
:10262C0040F22413C2F200031B684FF000025A82DE
:10263C00FB684FF0000098474FF00003184607F175
:10264C001007BD4680BD00BF80B483B000AF034609
:10265C00FB80FB88002B0AD140F22413C2F200034A
:10266C001B684FF002021A824FF0000311E040F297
:10267C00EA03C2F200031B78092B06D140F2EA03ED
:10268C00C2F200034FF000021A7040F23813C2F28B
:10269C000003184607F10C07BD4680BC704700BF0D
:1026AC0080B485B000AF0346FB80FB88002B0AD1B9
:1026BC0040F22413C2F200031B684FF002021A828C
:1026CC004FF0000338E040F2EA03C2F200031B783B
:1026DC00012B25D14FF00003FB6017E040F2EC0317
:1026EC00C2F200031A68D1B240F23413C2F20003F2
:1026FC00F8681B18197002F1010240F2EC03C2F2E7
:10270C0000031A60FB6803F10103FB60FB68012BFB
:10271C00E4D940F2EA03C2F200034FF000021A704F
:10272C0040F22413C2F200031B685B8A1A4640F283
:10273C003413C2F20003D318184607F11407BD4630
:10274C0080BC704780B582B000AF0346FB7140F28D
:10275C002413C2F200031B681B7803F07F03212BA8
:10276C0006D1FB790B2B03D100F09CF8034601E05A
:10277C004FF00203184607F10807BD4680BD00BFA5
:10278C0080B582B000AF0346FB80FB88184640F250
:10279C00A001C2F20001FEF753F80346184607F1F8
:1027AC000807BD4680BD00BF80B582B000AF0346B0
:1027BC00FB80FB88184640F2A801C2F20001FEF72C
:1027CC003FF80346184607F10807BD4680BD00BF19
:1027DC0080B584B000AF0346FB8040F22413C2F2F4
:1027EC0000031B68DB78FB73FB7B042B02D94FF0D7
:1027FC0000030DE0FB7B4FEAC30240F2C003C2F2C0
:10280C000003D318FA8810461946FEF719F8034648
:10281C00184607F11007BD4680BD00BF80B582B0D9
:10282C0000AF0346FB80FB88184640F2B001C2F2B1
:10283C000001FEF705F80346184607F10807BD46E8
:10284C0080BD00BF80B582B000AF0346FB80FB8823
:10285C00184640F2B801C2F20001FDF7F1FF034641
:10286C00184607F10807BD4680BD00BF80B483B091
:10287C0000AF02460B46FA71BB71BB79002B02D03C
:10288C004FF0020307E0FB79002B02D04FF002035C
:10289C0001E04FF00003184607F10C07BD4680BC61
:1028AC00704700BF80B483B000AF40F22413C2F273
:1028BC0000031B68DB78FB71FA7940F23013C2F22B
:1028CC0000031A604FF00003184607F10C07BD46D1
:1028DC0080BC704780B483B000AF0346FB80FB889C
:1028EC00002B0AD140F22413C2F200031B684FF0F4
:1028FC0001021A824FF0000303E040F23013C2F2DF
:10290C000003184607F10C07BD4680BC704700BF9A
:10291C0080B483B000AF0346FB714FF44063C4F244
:10292C0001034FF040021A61FB79002B0ED04FF4DB
:10293C004063C4F201034FF44062C4F20102126816
:10294C0022F0706242F000721A600DE04FF44063A6
:10295C00C4F201034FF44062C4F20102126822F087
:10296C00706242F0C0621A6007F10C07BD4680BC71
:10297C00704700BF80B400AF40F2F003C2F2000316
:10298C004FF003021A60BD4680BC704780B483B020
:10299C0000AF40F20413C2F200037B607B689B7AA9
:1029AC00002B07D040F2F003C2F200034FF00502F7
:1029BC001A6006E040F2F003C2F200034FF001028D
:1029CC001A6007F10C07BD4680BC704780B582B019
:1029DC0000AF4FF00100FFF79BFF4FF00103FB80AE
:1029EC0045F64043C4F20003FA881A6040F22813FB
:1029FC00C2F200034FF000021A8045F64043C4F2C5
:102A0C00000340F22812C2F2000212881A6045F646
:102A1C004443C4F200034FF000021A6040F2281342
:102A2C00C2F200034FF4E0521A8045F64043C4F260
:102A3C00000340F22812C2F2000212881A604FF012
:102A4C000003184607F10807BD4680BD80B582B06B
:102A5C0000AF45F64043C4F200031B68FB80FB88C3
:102A6C0043F00803FB8045F64043C4F20003FA88A8
:102A7C001A6045F64043C4F200031B68FB80FB88D8
:102A8C0043F00403FB8045F64043C4F20003FA888C
:102A9C001A60FFF76FFF07F10807BD4680BD00BF46
:102AAC0080B582B000AF45F64043C4F200031B680A
:102ABC00FB80FB8823F00403FB8045F64043C4F203
:102ACC000003FA881A60FFF761FF45F64043C4F231
:102ADC0000034FF43F421A6007F10807BD4680BD62
:102AEC0080B584B000AF0346FB71FB79072B05D092
:102AFC0040F23C13C2F20003FA791A7040F23C1314
:102B0C00C2F200031B78DBB2052B00F29D8001A200
:102B1C0052F823F0392B00084D2B0008612B0008CC
:102B2C007F2B0008BB2B0008F92B0008FFF7B8FF20
:102B3C0040F23C13C2F200034FF006021A708FE011
:102B4C00FFF7AEFF40F23C13C2F200034FF0040259
:102B5C001A7085E040F23C13C2F200034FF00202FF
:102B6C005A7040F23C13C2F200034FF003021A7089
:102B7C0076E040F23C13C2F200035B78DBB203F167
:102B8C00FF33DAB240F23C13C2F200035A7040F247
:102B9C003C13C2F200035B78DBB2002B5DD140F238
:102BAC003C13C2F200034FF004021A7055E045F6D4
:102BBC004043C4F200031B68FB81FB8943F0100304
:102BCC00FB8145F64043C4F20003FA891A6040F2D7
:102BDC003C13C2F200034FF005021A7040F23C1392
:102BEC00C2F200034FF00A025A7039E040F23C1373
:102BFC00C2F200035B78DBB203F1FF33DAB240F2CE
:102C0C003C13C2F200035A7040F23C13C2F20003B0
:102C1C005B78DBB2002B22D145F64043C4F20003B3
:102C2C001B68FB81FB8923F01003FB8145F64043B5
:102C3C00C4F20003FA891A6040F23C13C2F200039A
:102C4C004FF006021A700AE040F23C13C2F2000385
:102C5C004FF006021A7000BF02E000BF00E000BF98
:102C6C0007F11007BD4680BD80B500AF4FF480530F
:102C7C00C4F202034FF48052C4F20202126842F012
:102C8C0001021A604FF48052C4F202024FF48053D6
:102C9C00C4F202035B6819464FF00003CFF6FF0342
:102CAC000B4053604FF48053C4F202034FF4805234
:102CBC00C4F20202126822F0847222F480321A608A
:102CCC004FF48053C4F202034FF48052C4F2020258
:102CDC00126822F480221A604FF48053C4F202036B
:102CEC004FF48052C4F20202526822F4FE025A607F
:102CFC004FF48053C4F202034FF41F029A6000F0A9
:102D0C0009F84FF46D43CEF200034FF000629A6065
:102D1C0080BD00BF80B500AF00F002F880BD00BFE1
:102D2C0080B483B000AF4FF000037B604FF0000322
:102D3C003B604FF48053C4F202034FF48052C4F250
:102D4C000202126842F480321A604FF48053C4F2CB
:102D5C0002031B6803F400333B607B6803F101033F
:102D6C007B603B68002B03D17B68B3F5A06FECD183
:102D7C004FF48053C4F202031B6803F40033002B9E
:102D8C0003D04FF001033B6002E04FF000033B60C7
:102D9C003B68012B40F094804FF40053C4F20203C3
:102DAC004FF40052C4F20202126842F010021A6090
:102DBC004FF40053C4F202034FF40052C4F2020267
:102DCC00126822F003021A604FF40053C4F202039B
:102DDC004FF40052C4F20202126842F002021A606E
:102DEC004FF48053C4F202034FF48052C4F2020237
:102DFC0052685A604FF48053C4F202034FF480526D
:102E0C00C4F2020252685A604FF48053C4F20203B7
:102E1C004FF48052C4F20202526842F480625A604B
:102E2C004FF48053C4F202034FF48052C4F20202F6
:102E3C00526822F47C125A604FF48053C4F202039D
:102E4C004FF48052C4F20202526842F4E8125A6003
:102E5C004FF48053C4F202034FF48052C4F20202C6
:102E6C00126842F080721A6000BF4FF48053C4F2B3
:102E7C0002031B6803F00073002BF6D04FF4805351
:102E8C00C4F202034FF48052C4F20202526822F0E0
:102E9C0003025A604FF48053C4F202034FF4805281
:102EAC00C4F20202526842F002025A6000BF4FF4B0
:102EBC008053C4F202035B6803F00C03082BF6D1B9
:102ECC0007F10C07BD4680BC704700BF002103E032
:102EDC000B4B5B58435004310A480B4B42189A4237
:102EEC00F6D30A4A02E0002342F8043B084B9A420C
:102EFC00F9D3FFF7B9FE00F067FA00F00DF8704750
:102F0C00843B000800000020E8000020E8000020BE
:102F1C0044010020FEE7000080B483B000AF78606D
:102F2C00FEE700BF80B483B000AF03463960FB718D
:102F3C0097F90730002B10DA4FF46D43CEF20003F3
:102F4C00FA7902F00F02A2F104013A68D2B24FEA08
:102F5C000212D2B25B181A760DE04FF46143CEF236
:102F6C00000397F907103A68D2B24FEA0212D2B2B4
:102F7C005B1883F8002307F10C07BD4680BC704733
:102F8C0080B582B000AF78607A686FF07F439A4268
:102F9C0002D94FF001031FE04EF21003CEF20003F2
:102FAC007A6822F07F4202F1FF325A604FF0FF3014
:102FBC004FF00F01FFF7B6FF4EF21003CEF20003F5
:102FCC004FF000029A604EF21003CEF200034FF065
:102FDC0007021A604FF00003184607F10807BD46B8
:102FEC0080BD00BF80B400AF40F24013C2F20003BA
:102FFC001B6803F1010240F24013C2F200031A6095
:10300C00BD4680BC704700BF80B500AF40F2E40302
:10301C00C2F200031A6844F6D353C1F26203A3FB55
:10302C0002134FEA93131846FFF7AAFF0346002B2F
:10303C0003D04FF00100FFF76FFF80BD80B485B067
:10304C0000AF786040F24013C2F200031B68FB60D3
:10305C0000BF40F24013C2F200031A68FB68D21A98
:10306C007B689A42F5D307F11407BD4680BC7047C4
:10307C0080B400AF40F60443C4F2010340F60442AE
:10308C00C4F20102126822F4700242F480121A6037
:10309C0040F60443C4F2010340F60442C4F20102B8
:1030AC00126822F0706242F080721A6040F604439B
:1030BC00C4F2010340F60442C4F20102126822F089
:1030CC00704242F080521A60BD4680BC704700BF0F
:1030DC0080B485B000AF02460B46FA71BB714FF05D
:1030EC000003FB60BB7903F00103DBB2002B0ED0B5
:1030FC00FB7903F00103DBB2002B04D0FB6843F433
:10310C000053FB6003E0FB6843F00053FB60BB79AA
:10311C0003F00203002B0DD0FB7903F00203002B0C
:10312C0004D0FB6843F48043FB6003E0FB6843F08E
:10313C008043FB60BB7903F00403002B0DD0FB79BB
:10314C0003F00403002B04D0FB6843F40043FB6042
:10315C0003E0FB6843F00043FB604FF44063C4F2B0
:10316C000103FA681A6107F11407BD4680BC704769
:10317C0080B485B000AF78607B6803F00703FB6018
:10318C004FF46D43CEF20003DB68BB60BA684FF6B8
:10319C00FF031340BB60FB684FEA0322BB68134379
:1031AC0043F0BE6343F42023BB604FF46D43CEF277
:1031BC000003BA68DA6007F11407BD4680BC70479B
:1031CC0080B400AF4FF46D43CEF20003DB6803F420
:1031DC00E0634FEA13231846BD4680BC704700BF1E
:1031EC0080B483B000AF0346FB714FF46143CEF261
:1031FC00000397F907204FEA5212F97901F01F01E9
:10320C004FF0010000FA01F143F8221007F10C070E
:10321C00BD4680BC704700BF80B483B000AF03468E
:10322C003960FB7197F90730002B10DA4FF46D43BE
:10323C00CEF20003FA7902F00F02A2F104013A680F
:10324C00D2B24FEA0212D2B25B181A760DE04FF4EA
:10325C006143CEF2000397F907103A68D2B24FEAF5
:10326C000212D2B25B1883F8002307F10C07BD469B
:10327C0080BC704780B489B000AFF860B9607A60E8
:10328C00FB6803F00703FB61FB69C3F10703042B25
:10329C0028BF0423BB61FB6903F10403062B03D98C
:1032AC00FB69A3F1030301E04FF000037B61BB69F1
:1032BC004FF0010202FA03F303F1FF331A46BB6825
:1032CC001A407B6902FA03F27B694FF0010101FAA3
:1032DC0003F303F1FF3319467B680B401343184685
:1032EC0007F12407BD4680BC704700BF80B500AF16
:1032FC004FF40070FFF73CFFFFF762FF03461846E0
:10330C004FF001014FF00002FFF7B4FF03464FF0FE
:10331C0013001946FFF780FF4FF01300FFF760FF13
:10332C00FFF74EFF034618464FF001014FF0010224
:10333C00FFF7A0FF03464FF014001946FFF76CFF90
:10334C004FF01400FFF74CFF80BD00BF80B500AFFD
:10335C00FFF7CCFFFFF758FE4FF48053C4F2020383
:10336C004FF48052C4F20202926942F004029A6154
:10337C004FF48053C4F202034FF48052C4F20202A1
:10338C00926942F008029A61FFF772FE4FF4805383
:10339C00C4F202034FF48052C4F20202526822F4C7
:1033AC0080025A604FF48053C4F202034FF48052EF
:1033BC00C4F20202D26942F40002DA61FEF7AAF802
:1033CC0000F036F880BD00BF80B584B000AFFFF7C9
:1033DC00BDFF00F00FFA0346FB7307F10403184618
:1033EC0000F0A0FA0346FB7342F6500000F006FB17
:1033FC000346FB73FB7B802B05D14FF004004FF091
:10340C000401FFF765FE00BF40F2F003C2F20003B7
:10341C001B68052BF8D14FF001004FF00101FFF7AD
:10342C0057FE4FF00003184607F11007BD4680BD4C
:10343C0080B400AF4FF48053C4F202034FF48052B7
:10344C00C4F20202D26942F00102DA614FF4006365
:10345C00C4F201034FF40062C4F20102126822F4B8
:10346C00700242F440121A604FF40063C4F201037C
:10347C004FF40062C4F20102126822F0704242F072
:10348C0040521A604FF40063C4F201034FF400621F
:10349C00C4F20102126822F4702242F440321A6023
:1034AC004FF40063C4F201034FF010021A614FF4A1
:1034BC000063C4F201034FF40062C4F2010212680B
:1034CC0022F4706242F430621A604FF080434FF085
:1034DC0080021A804FF080434FF008021A854FF09B
:1034EC0080434FF0F4029A854FF080434FF0010275
:1034FC009A824FF080434FF000029A804FF0804345
:10350C004FF07A029A874FF080434FF08042928BB3
:10351C0092B222F0FF0292B29A834FF080434FF0A6
:10352C008042928B92B242F0680292B29A834FF030
:10353C0080434FF08042128C92B242F4807292B26D
:10354C001A844FF080434FF08042928992B242F03D
:10355C00010292B29A81BD4680BC704780B584B09E
:10356C0000AF0346FB714FF00003FB7330E0FB79B7
:10357C005BB2002B07DA4FF40063C4F201034FF087
:10358C0080021A6106E04FF40063C4F201034FF4A9
:10359C0000021A614FF00100FFF750FD4FF4006379
:1035AC00C4F201034FF020021A614FF00100FFF743
:1035BC0045FD4FF40063C4F201034FF400121A618D
:1035CC00FB794FEA4303FB71FB7B03F10103FB73B4
:1035DC00FB7B072BCBD94FF00100FFF72FFD07F139
:1035EC001007BD4680BD00BF80B582B000AF4FF064
:1035FC000003BB714FF40063C4F201034FF400628B
:10360C00C4F20102126822F0704242F080421A6049
:10361C004FF00100FFF712FD4FF00003FB712FE09C
:10362C004FF40063C4F201034FF020021A614FF013
:10363C000100FFF703FD4FF40063C4F201039B6824
:10364C00DBB223F07F037B714FF40063C4F2010300
:10365C004FF400121A614FF00100FFF7EFFC7B7979
:10366C00002B09D0FB794FF0800242FA03F3DAB257
:10367C00BB791343DBB2BB71FB7903F10103FB7123
:10368C00FB79072BCCD94FF40063C4F201034FF440
:10369C000062C4F20102126822F0704242F0405201
:1036AC001A604FF00100FFF7C9FCBB79184607F10F
:1036BC000807BD4680BD00BF80B584B000AF786000
:1036CC004FF40063C4F201034FF480121A614FF0FF
:1036DC000100FFF7B3FC4FF04800FFF73FFF4FF03E
:1036EC000003FB730EE04FF00100FFF7A7FCFB7B20
:1036FC007A68D3181B781846FFF730FFFB7B03F171
:10370C000103FB73FB7B072BEDD94FF00100FFF797
:10371C0095FC4FF40063C4F201034FF010021A61E0
:10372C0007F11007BD4680BD80B582B000AF4FF4E5
:10373C000063C4F201034FF480121A614FF0800051
:10374C00FFF70CFFFFF750FF0346FB714FF40063CC
:10375C00C4F201034FF010021A61FB79184607F10D
:10376C000807BD4680BD00BF90B585B000AF78603E
:10377C004FF40063C4F201034FF480121A614FF04E
:10378C00C000FFF7EBFEFFF72FFF0346BB734FF0B4
:10379C000003FB730AE0FB7B7A68D418FFF724FF65
:1037AC0003462370FB7B03F10103FB73FB7B0E2BA6
:1037BC00F1D94FF40063C4F201034FF010021A6107
:1037CC00BB7B184607F11407BD4690BD80B483B08F
:1037DC0000AF0346FB714FF080434FF080421288DC
:1037EC0092B242F0010292B21A8007F10C07BD4668
:1037FC0080BC704780B584B000AF4FF40063C4F256
:10380C0001034FF40062C4F20102126822F00F02AD
:10381C0042F001021A604FF40063C4F201034FF44A
:10382C000062C4F20102126822F0F00242F01002AF
:10383C001A6040F60403C4F2010340F60402C4F219
:10384C000102126822F4706242F480721A604FF422
:10385C000063C4F201034FF003021A614FF0010040
:10386C00FFF7ECFB4FF40063C4F201034FF48062EA
:10387C001A614FF06400FFF7E1FB4FF40063C4F2F0
:10388C0001034FF40062C4F20102126822F00F022D
:10389C0042F004021A604FF40063C4F201034FF4C7
:1038AC000062C4F20102126822F0F00242F04002FF
:1038BC001A6007F104034FF000021A604FF0000287
:1038CC005A604FF001033B714FF000037B714FF0D6
:1038DC000503BB7107F104031846FFF7EDFE4FF02B
:1038EC000B03FB73FB7B03F1FF33FB73FFF71CFF35
:1038FC000346BB73BB7B5BB2002B02DBFB7B002B59
:10390C00F0D1BB7B5BB2002B01DBBB7B04E04FF047
:10391C000100FFF75BFFBB7B184607F11007BD46A4
:10392C0080BD00BF80B586B000AF786007F108039A
:10393C004FF000021A6003F104034FF000021A600A
:10394C0003F104034FF000021A6003F104034FF07B
:10395C0000021A8003F102034FF000021A7003F107
:10396C0001034FF010033B7207F108031846FFF7F1
:10397C00A3FE07F108034FF000021A6003F10403E1
:10398C004FF000021A6003F104034FF000021A60BA
:10399C0003F104034FF000021A8003F102034FF00D
:1039AC0000021A7003F1010307F108031846FFF730
:1039BC00DBFE0346FB753A7A7B681A707A7A7B6871
:1039CC009A70BA7A7B68DA70FB7A4FEA03239AB260
:1039DC003B7B13439BB29AB27B689A807A7B7B6861
:1039EC009A71BA7B7B68DA71FA7B7B681A72FB7D01
:1039FC00184607F11807BD4680BD00BF80B584B0DE
:103A0C0000AF0346FB8007F108034FF000021A6079
:103A1C004FF000025A604FF020033B724FF000034E
:103A2C007B72FB884FEA13239BB2DBB2BB72FB8821
:103A3C00DBB2FB724FF000033B7307F1080318462F
:103A4C00FFF73AFEFFF770FE0346184607F1100722
:103A5C00BD4680BD80B500AFFEF7C8FB80BD00BF82
:103A6C0080B500AFFDF798FF80BD00BF12010002CA
:103A7C0000000040830450570002010203010000C3
:103A8C0009029100030100803209040000000101C9
:103A9C00000009240100012B0001010C240201107B
:103AAC00070002030000000D2406020102010000C1
:103ABC0000000000092403030101000200090401B5
:103ACC0000000102000009040101010102000007CD
:103ADC002401030001000B2402010202100180BB2F
:103AEC000009058301000201000007250100020006
:103AFC000009040200020300000009211101000169
:103B0C002217000705810302000A070502030200C1
:103B1C00010000000600FF0901A101850109011542
:103B2C000026FF0075089501B182C000040309044A
:103B3C002603530054004D006900630072006F00AF
:103B4C0065006C0065006300740072006F006E000D
:103B5C0069006300730000001E035500530042000F
:103B6C00200052006100640069006F0020007600A4
:083B7C0030002E0031000000B2
:103B84001003530054004D00330032003100300064
:103B9400AD21000815150008ED21000815150008D1
:103BA4001515000815150008151500081515000849
:103BB400E121000815150008151500081515000861
:103BC400151500081515000803010000A5230008B9
:103BD400D1230008012500080D2500081925000837
:103BE40051270008792800088D270008B527000808
:103BF400DD27000800000000400000001515000843
:103C0400C12400081515000815150008151500082D
:103C1400151500081515000815150008E9240008F5
:103C2400783A0008120000008C3A00089100000065
:103C3400203B000817000000063B000809000000B4
:103C4400383B0008040000003C3B0008260000004C
:103C5400643B00081E00000000000020100000006B
:083C64000100000000A24A0467
:0400000508002ED9E8
:00000001FF
